{
  "contractName": "Game",
  "abi": [
    {
      "inputs": [],
      "stateMutability": "payable",
      "type": "constructor"
    },
    {
      "inputs": [],
      "name": "gameOwner",
      "outputs": [
        {
          "internalType": "address",
          "name": "",
          "type": "address"
        }
      ],
      "stateMutability": "view",
      "type": "function"
    },
    {
      "inputs": [
        {
          "internalType": "uint256",
          "name": "_bet",
          "type": "uint256"
        }
      ],
      "name": "createGame",
      "outputs": [],
      "stateMutability": "nonpayable",
      "type": "function"
    },
    {
      "inputs": [
        {
          "internalType": "address",
          "name": "_opponent",
          "type": "address"
        }
      ],
      "name": "joinGame",
      "outputs": [
        {
          "internalType": "bool",
          "name": "",
          "type": "bool"
        }
      ],
      "stateMutability": "nonpayable",
      "type": "function"
    },
    {
      "inputs": [],
      "name": "chooseFirstPlayer",
      "outputs": [],
      "stateMutability": "nonpayable",
      "type": "function"
    },
    {
      "inputs": [],
      "name": "rollDice",
      "outputs": [
        {
          "internalType": "uint256",
          "name": "",
          "type": "uint256"
        }
      ],
      "stateMutability": "view",
      "type": "function"
    },
    {
      "inputs": [
        {
          "internalType": "address",
          "name": "_player",
          "type": "address"
        },
        {
          "internalType": "bytes32",
          "name": "_option",
          "type": "bytes32"
        }
      ],
      "name": "gameOptions",
      "outputs": [],
      "stateMutability": "nonpayable",
      "type": "function"
    },
    {
      "inputs": [],
      "name": "raiseBet",
      "outputs": [],
      "stateMutability": "nonpayable",
      "type": "function"
    },
    {
      "inputs": [],
      "name": "callGame",
      "outputs": [],
      "stateMutability": "nonpayable",
      "type": "function"
    },
    {
      "inputs": [],
      "name": "foldGame",
      "outputs": [],
      "stateMutability": "nonpayable",
      "type": "function"
    }
  ],
  "bytecode": "0x608060405267016345785d8a0000341161001857600080fd5b61036b806100276000396000f3fe608060405234801561001057600080fd5b50600436106100935760003560e01c8063837e7cc611610066578063837e7cc61461017a578063aaf6fb2b14610198578063c546735b146101a2578063ddbc07dd146101ac578063f6b12f28146101b657610093565b80632389a2901461009857806330a978be146100f45780634057cc3e146100fe57806348e837b91461014c575b600080fd5b6100da600480360360208110156100ae57600080fd5b81019080803573ffffffffffffffffffffffffffffffffffffffff169060200190929190505050610200565b604051808215151515815260200191505060405180910390f35b6100fc6102b5565b005b61014a6004803603604081101561011457600080fd5b81019080803573ffffffffffffffffffffffffffffffffffffffff169060200190929190803590602001909291905050506102b7565b005b6101786004803603602081101561016257600080fd5b81019080803590602001909291905050506102bb565b005b610182610305565b6040518082815260200191505060405180910390f35b6101a061030a565b005b6101aa61030c565b005b6101b461030e565b005b6101be610310565b604051808273ffffffffffffffffffffffffffffffffffffffff1673ffffffffffffffffffffffffffffffffffffffff16815260200191505060405180910390f35b60008073ffffffffffffffffffffffffffffffffffffffff16600160009054906101000a900473ffffffffffffffffffffffffffffffffffffffff1673ffffffffffffffffffffffffffffffffffffffff16141561029e5781600160006101000a81548173ffffffffffffffffffffffffffffffffffffffff021916908373ffffffffffffffffffffffffffffffffffffffff1602179055506102a7565b600090506102b0565b6102af61030a565b5b919050565b565b5050565b336000806101000a81548173ffffffffffffffffffffffffffffffffffffffff021916908373ffffffffffffffffffffffffffffffffffffffff1602179055508060028190555050565b600090565b565b565b565b6000809054906101000a900473ffffffffffffffffffffffffffffffffffffffff168156fea2646970667358221220df9fb8d1d2de6d4a499206517c6eb22d0e957df185a076f21300d4f09b10603f64736f6c63430006060033",
  "immutableReferences": {},
  "source": "// SPDX-License-Identifier: MIT\npragma solidity >=0.6.6 <=0.8.3;\n\ncontract Game {\n    // players info\n    address public gameOwner;\n    address internal gameOpponent;\n\n    struct player {\n        uint8 number; // player 1 or 2\n        address ethAddress;\n    }\n\n    // game info\n    struct game {\n        uint8 playerCounter;\n        uint8 roundCounter;\n    }\n\n    bytes1 firstPlayer;\n    uint256 bet;\n\n    constructor() public payable {\n        require(msg.value > 0.1 ether);\n    }\n\n    // events\n\n    // functions\n    // pretty basic: https://github.com/buddies2705/dice/tree/master/contracts\n    function createGame(uint256 _bet) public {\n        gameOwner = msg.sender;\n        bet = _bet;\n    }\n\n    function joinGame(address _opponent) public returns (bool) {\n        if (gameOpponent == address(0)) {\n            gameOpponent = _opponent;\n        } else {\n            return false; // \"Game is already full\";\n        }\n\n        chooseFirstPlayer();\n    }\n\n    function chooseFirstPlayer() public {\n        // this should call the random number generator to get a 1 or 2\n        // uint8 rnd;\n\n        // firstPlayer = gameOwner;\n\n        // if (rnd == 2) {\n        //     firstPlayer = gameOpponent;\n        // }\n    }\n\n    function incrementRound() internal {}\n\n    function rollDice() public view returns (uint256) {\n        // this should call the random number generator to get a number from 1 to 6\n    }\n\n    function gameOptions(address _player, bytes32 _option) public {\n        // set the options [raise, call, fold] for the given player\n    }\n\n    function raiseBet() public {}\n\n    function callGame() public {}\n\n    function foldGame() public {}\n}\n",
  "sourcePath": "/Users/afshanaman/Development/personal/blockchain/witcher-poker/smart-contract/contracts/Game.sol",
  "compiler": {
    "name": "solc",
    "version": "0.6.6+commit.6c089d02.Emscripten.clang"
  },
  "schemaVersion": "3.3.4",
  "updatedAt": "2021-03-29T18:54:56.850Z",
  "devdoc": {
    "methods": {}
  },
  "userdoc": {
    "methods": {}
  }
}