{
  "contractName": "RandomNumberConsumer",
  "abi": [
    {
      "inputs": [],
      "stateMutability": "nonpayable",
      "type": "constructor"
    },
    {
      "anonymous": false,
      "inputs": [
        {
          "indexed": false,
          "internalType": "bytes32",
          "name": "requestId",
          "type": "bytes32"
        }
      ],
      "name": "RequestedRandomness",
      "type": "event"
    },
    {
      "inputs": [],
      "name": "randomResult",
      "outputs": [
        {
          "internalType": "uint256",
          "name": "",
          "type": "uint256"
        }
      ],
      "stateMutability": "view",
      "type": "function"
    },
    {
      "inputs": [
        {
          "internalType": "bytes32",
          "name": "requestId",
          "type": "bytes32"
        },
        {
          "internalType": "uint256",
          "name": "randomness",
          "type": "uint256"
        }
      ],
      "name": "rawFulfillRandomness",
      "outputs": [],
      "stateMutability": "nonpayable",
      "type": "function"
    },
    {
      "inputs": [
        {
          "internalType": "uint256",
          "name": "userProvidedSeed",
          "type": "uint256"
        }
      ],
      "name": "getRandomNumber",
      "outputs": [
        {
          "internalType": "bytes32",
          "name": "requestId",
          "type": "bytes32"
        }
      ],
      "stateMutability": "nonpayable",
      "type": "function"
    },
    {
      "inputs": [],
      "name": "getChainlinkToken",
      "outputs": [
        {
          "internalType": "address",
          "name": "",
          "type": "address"
        }
      ],
      "stateMutability": "view",
      "type": "function"
    }
  ],
  "bytecode": "0x60c060405234801561001057600080fd5b50738c7382f9d8f56b33781fe506e897a4f1e2d1725573326c977e6efc84e512bb9c30f76e30c160ed06fb8173ffffffffffffffffffffffffffffffffffffffff1660a08173ffffffffffffffffffffffffffffffffffffffff1660601b815250508073ffffffffffffffffffffffffffffffffffffffff1660808173ffffffffffffffffffffffffffffffffffffffff1660601b8152505050507f6e75b569a01ef56d18cab6a8e71e6600d6ce853834d4a5748b720d06f878b3a460001b600181905550655af3107a400060028190555060805160601c60a05160601c6106066101156000398061016352806102ca525080610137528061028e52506106066000f3fe608060405234801561001057600080fd5b506004361061004c5760003560e01c8063165d35e11461005157806342619f661461009b57806394985ddd146100b9578063b37217a4146100f1575b600080fd5b610059610133565b604051808273ffffffffffffffffffffffffffffffffffffffff1673ffffffffffffffffffffffffffffffffffffffff16815260200191505060405180910390f35b6100a361015b565b6040518082815260200191505060405180910390f35b6100ef600480360360408110156100cf57600080fd5b810190808035906020019092919080359060200190929190505050610161565b005b61011d6004803603602081101561010757600080fd5b8101908080359060200190929190505050610230565b6040518082815260200191505060405180910390f35b60007f0000000000000000000000000000000000000000000000000000000000000000905090565b60035481565b7f000000000000000000000000000000000000000000000000000000000000000073ffffffffffffffffffffffffffffffffffffffff163373ffffffffffffffffffffffffffffffffffffffff1614610222576040517f08c379a000000000000000000000000000000000000000000000000000000000815260040180806020018281038252601f8152602001807f4f6e6c7920565246436f6f7264696e61746f722063616e2066756c66696c6c0081525060200191505060405180910390fd5b61022c828261027f565b5050565b60006102416001546002548461028a565b90507fe5f5b44d72d4143c278eb745c4acc0695c4a5bc616be5beecf46abe29661780e816040518082815260200191505060405180910390a1919050565b806003819055505050565b60007f000000000000000000000000000000000000000000000000000000000000000073ffffffffffffffffffffffffffffffffffffffff16634000aea07f000000000000000000000000000000000000000000000000000000000000000085878660405160200180838152602001828152602001925050506040516020818303038152906040526040518463ffffffff1660e01b8152600401808473ffffffffffffffffffffffffffffffffffffffff1673ffffffffffffffffffffffffffffffffffffffff16815260200183815260200180602001828103825283818151815260200191508051906020019080838360005b8381101561039957808201518184015260208101905061037e565b50505050905090810190601f1680156103c65780820380516001836020036101000a031916815260200191505b50945050505050602060405180830381600087803b1580156103e757600080fd5b505af11580156103fb573d6000803e3d6000fd5b505050506040513d602081101561041157600080fd5b81019080805190602001909291905050505060006104438584306000808a815260200190815260200160002054610495565b905061046b60016000808881526020019081526020016000205461050f90919063ffffffff16565b6000808781526020019081526020016000208190555061048b8582610597565b9150509392505050565b600084848484604051602001808581526020018481526020018373ffffffffffffffffffffffffffffffffffffffff1673ffffffffffffffffffffffffffffffffffffffff1681526020018281526020019450505050506040516020818303038152906040528051906020012060001c9050949350505050565b60008082840190508381101561058d576040517f08c379a000000000000000000000000000000000000000000000000000000000815260040180806020018281038252601b8152602001807f536166654d6174683a206164646974696f6e206f766572666c6f77000000000081525060200191505060405180910390fd5b8091505092915050565b6000828260405160200180838152602001828152602001925050506040516020818303038152906040528051906020012090509291505056fea2646970667358221220250887630fe8ad25f67af6f5a1370b35871595b593c253e4119312fa81b79c5464736f6c63430006060033",
  "immutableReferences": {
    "326": [
      {
        "length": 32,
        "start": 311
      },
      {
        "length": 32,
        "start": 654
      }
    ],
    "328": [
      {
        "length": 32,
        "start": 355
      },
      {
        "length": 32,
        "start": 714
      }
    ]
  },
  "source": "// SPDX-License-Identifier: MIT\npragma solidity >=0.6.6 <=0.8.3;\n\nimport \"@chainlink/contracts/src/v0.6/VRFConsumerBase.sol\";\n\ncontract RandomNumberConsumer is VRFConsumerBase {\n    bytes32 internal keyHash;\n    uint256 internal fee;\n    uint256 public randomResult;\n    event RequestedRandomness(bytes32 requestId);\n\n    /**\n     * Constructor inherits VRFConsumerBase\n     * \n     * Network: Polygon (Matic) Mumbai Testnet\n     * Chainlink VRF Coordinator address: 0x8C7382F9D8f56b33781fE506E897a4F1e2d17255\n     * LINK token address:                0x326C977E6efc84E512bB9C30f76E30c160eD06FB\n     * Key Hash: 0x6e75b569a01ef56d18cab6a8e71e6600d6ce853834d4a5748b720d06f878b3a4\n     */\n    constructor()\n        public\n        VRFConsumerBase(\n            0x8C7382F9D8f56b33781fE506E897a4F1e2d17255, // VRF Coordinator\n            0x326C977E6efc84E512bB9C30f76E30c160eD06FB // LINK Token\n        )\n    {\n        keyHash = 0x6e75b569a01ef56d18cab6a8e71e6600d6ce853834d4a5748b720d06f878b3a4;\n        fee = 0.0001 * 10 ** 18; // 0.0001 LINK\n    }\n\n    /**\n     * Requests randomness from a user-provided seed\n     */\n    function getRandomNumber(uint256 userProvidedSeed)\n        public\n        returns (bytes32 requestId)\n    {\n        requestId = requestRandomness(keyHash, fee, userProvidedSeed);\n        emit RequestedRandomness(requestId);\n    }\n\n    /**\n     * Requests the address of the Chainlink Token on this network\n     */\n    function getChainlinkToken() public view returns (address) {\n        return address(LINK);\n    }\n\n    /**\n     * Callback function used by VRF Coordinator\n     */\n    function fulfillRandomness(\n        bytes32, /* requestId */\n        uint256 randomness\n    ) internal override {\n        randomResult = randomness;\n    }\n}\n",
  "sourcePath": "/Users/afshanaman/Development/personal/blockchain/witcher-poker/smart-contract/contracts/RandomNumberConsumer.sol",
  "compiler": {
    "name": "solc",
    "version": "0.6.6+commit.6c089d02.Emscripten.clang"
  },
  "schemaVersion": "3.3.4",
  "updatedAt": "2021-03-29T18:54:37.525Z",
  "devdoc": {
    "methods": {}
  },
  "userdoc": {
    "methods": {
      "constructor": "Constructor inherits VRFConsumerBase      * Network: Polygon (Matic) Mumbai Testnet Chainlink VRF Coordinator address: 0x8C7382F9D8f56b33781fE506E897a4F1e2d17255 LINK token address:                0x326C977E6efc84E512bB9C30f76E30c160eD06FB Key Hash: 0x6e75b569a01ef56d18cab6a8e71e6600d6ce853834d4a5748b720d06f878b3a4",
      "getChainlinkToken()": {
        "notice": "Requests the address of the Chainlink Token on this network"
      },
      "getRandomNumber(uint256)": {
        "notice": "Requests randomness from a user-provided seed"
      }
    }
  }
}